{
    "_format": "hh-sol-artifact-1",
    "contractName": "TrackingContract",
    "sourceName": "contracts/TrackingContract.sol",
    "abi": [
        {
            "inputs": [],
            "stateMutability": "nonpayable",
            "type": "constructor"
        },
        {
            "anonymous": false,
            "inputs": [
                {
                    "indexed": true,
                    "internalType": "address",
                    "name": "from",
                    "type": "address"
                },
                {
                    "indexed": false,
                    "internalType": "uint256",
                    "name": "timestamp",
                    "type": "uint256"
                },
                {
                    "indexed": false,
                    "internalType": "string",
                    "name": "_uid",
                    "type": "string"
                },
                {
                    "indexed": false,
                    "internalType": "string",
                    "name": "_productName",
                    "type": "string"
                },
                {
                    "indexed": false,
                    "internalType": "string",
                    "name": "_producer",
                    "type": "string"
                },
                {
                    "indexed": false,
                    "internalType": "string",
                    "name": "_status",
                    "type": "string"
                }
            ],
            "name": "NewScanEvent",
            "type": "event"
        },
        {
            "anonymous": false,
            "inputs": [
                {
                    "indexed": false,
                    "internalType": "string",
                    "name": "_uid",
                    "type": "string"
                },
                {
                    "indexed": false,
                    "internalType": "string",
                    "name": "_status",
                    "type": "string"
                }
            ],
            "name": "StatusUpdated",
            "type": "event"
        },
        {
            "inputs": [
                {
                    "internalType": "string",
                    "name": "a",
                    "type": "string"
                },
                {
                    "internalType": "string",
                    "name": "b",
                    "type": "string"
                }
            ],
            "name": "compareStrings",
            "outputs": [
                {
                    "internalType": "bool",
                    "name": "",
                    "type": "bool"
                }
            ],
            "stateMutability": "pure",
            "type": "function"
        },
        {
            "inputs": [
                {
                    "internalType": "string",
                    "name": "_uid",
                    "type": "string"
                }
            ],
            "name": "getProduct",
            "outputs": [
                {
                    "internalType": "string",
                    "name": "",
                    "type": "string"
                },
                {
                    "internalType": "string",
                    "name": "",
                    "type": "string"
                },
                {
                    "internalType": "string",
                    "name": "",
                    "type": "string"
                }
            ],
            "stateMutability": "view",
            "type": "function"
        },
        {
            "inputs": [
                {
                    "internalType": "string",
                    "name": "_uid",
                    "type": "string"
                },
                {
                    "internalType": "string",
                    "name": "_productName",
                    "type": "string"
                },
                {
                    "internalType": "string",
                    "name": "_producer",
                    "type": "string"
                },
                {
                    "internalType": "string",
                    "name": "_status",
                    "type": "string"
                }
            ],
            "name": "insert",
            "outputs": [
                {
                    "internalType": "uint256",
                    "name": "",
                    "type": "uint256"
                }
            ],
            "stateMutability": "nonpayable",
            "type": "function"
        },
        {
            "inputs": [],
            "name": "me",
            "outputs": [
                {
                    "internalType": "address",
                    "name": "",
                    "type": "address"
                }
            ],
            "stateMutability": "view",
            "type": "function"
        },
        {
            "inputs": [
                {
                    "internalType": "uint256",
                    "name": "",
                    "type": "uint256"
                }
            ],
            "name": "products",
            "outputs": [
                {
                    "internalType": "string",
                    "name": "uid",
                    "type": "string"
                },
                {
                    "internalType": "uint256",
                    "name": "scannedAt",
                    "type": "uint256"
                },
                {
                    "internalType": "string",
                    "name": "productName",
                    "type": "string"
                },
                {
                    "internalType": "string",
                    "name": "producer",
                    "type": "string"
                },
                {
                    "internalType": "string",
                    "name": "status",
                    "type": "string"
                }
            ],
            "stateMutability": "view",
            "type": "function"
        },
        {
            "inputs": [],
            "name": "totalTransactions",
            "outputs": [
                {
                    "internalType": "uint256",
                    "name": "",
                    "type": "uint256"
                }
            ],
            "stateMutability": "view",
            "type": "function"
        },
        {
            "inputs": [
                {
                    "internalType": "string",
                    "name": "_uid",
                    "type": "string"
                },
                {
                    "internalType": "string",
                    "name": "newStatus",
                    "type": "string"
                }
            ],
            "name": "updateStatus",
            "outputs": [
                {
                    "internalType": "bool",
                    "name": "",
                    "type": "bool"
                }
            ],
            "stateMutability": "nonpayable",
            "type": "function"
        }
    ],
    "bytecode": "0x608060405234801561001057600080fd5b50336000806101000a81548173ffffffffffffffffffffffffffffffffffffffff021916908373ffffffffffffffffffffffffffffffffffffffff160217905550611552806100606000396000f3fe608060405234801561001057600080fd5b506004361061007d5760003560e01c8063a216464b1161005b578063a216464b14610118578063b9a6003814610148578063bed34bba14610166578063cb12b48f146101965761007d565b8063347047cc1461008257806368111cce146100b25780637acc0b20146100e4575b600080fd5b61009c60048036038101906100979190610f1e565b6101b4565b6040516100a991906110cc565b60405180910390f35b6100cc60048036038101906100c79190610edd565b61036a565b6040516100db9392919061111e565b60405180910390f35b6100fe60048036038101906100f99190610f8a565b610745565b60405161010f95949392919061116a565b60405180910390f35b610132600480360381019061012d9190610e08565b6109ab565b60405161013f91906111f9565b60405180910390f35b610150610c1b565b60405161015d91906111f9565b60405180910390f35b610180600480360381019061017b9190610f1e565b610c21565b60405161018d91906110cc565b60405180910390f35b61019e610c7a565b6040516101ab91906110b1565b60405180910390f35b600080600090505b60025481101561035e576102a360018281548110610203577f4e487b7100000000000000000000000000000000000000000000000000000000600052603260045260246000fd5b9060005260206000209060050201600001805461021f90611392565b80601f016020809104026020016040519081016040528092919081815260200182805461024b90611392565b80156102985780601f1061026d57610100808354040283529160200191610298565b820191906000526020600020905b81548152906001019060200180831161027b57829003601f168201915b505050505085610c21565b1561034b5782600182815481106102e3577f4e487b7100000000000000000000000000000000000000000000000000000000600052603260045260246000fd5b90600052602060002090600502016004019080519060200190610307929190610c9e565b507fb75b1fec1bc9156569ae9f72fb29c6e6727b297e191d358465fff4c09d8f7d2684846040516103399291906110e7565b60405180910390a16001915050610364565b8080610356906113f5565b9150506101bc565b50600090505b92915050565b606080606060005b60025481101561070257610459600182815481106103b9577f4e487b7100000000000000000000000000000000000000000000000000000000600052603260045260246000fd5b906000526020600020906005020160000180546103d590611392565b80601f016020809104026020016040519081016040528092919081815260200182805461040190611392565b801561044e5780601f106104235761010080835404028352916020019161044e565b820191906000526020600020905b81548152906001019060200180831161043157829003601f168201915b505050505086610c21565b156106ef5760018181548110610498577f4e487b7100000000000000000000000000000000000000000000000000000000600052603260045260246000fd5b9060005260206000209060050201600201600182815481106104e3577f4e487b7100000000000000000000000000000000000000000000000000000000600052603260045260246000fd5b90600052602060002090600502016003016001838154811061052e577f4e487b7100000000000000000000000000000000000000000000000000000000600052603260045260246000fd5b906000526020600020906005020160040182805461054b90611392565b80601f016020809104026020016040519081016040528092919081815260200182805461057790611392565b80156105c45780601f10610599576101008083540402835291602001916105c4565b820191906000526020600020905b8154815290600101906020018083116105a757829003601f168201915b505050505092508180546105d790611392565b80601f016020809104026020016040519081016040528092919081815260200182805461060390611392565b80156106505780601f1061062557610100808354040283529160200191610650565b820191906000526020600020905b81548152906001019060200180831161063357829003601f168201915b5050505050915080805461066390611392565b80601f016020809104026020016040519081016040528092919081815260200182805461068f90611392565b80156106dc5780601f106106b1576101008083540402835291602001916106dc565b820191906000526020600020905b8154815290600101906020018083116106bf57829003601f168201915b505050505090509350935093505061073e565b80806106fa906113f5565b915050610372565b506040517f08c379a0000000000000000000000000000000000000000000000000000000008152600401610735906111d9565b60405180910390fd5b9193909250565b6001818154811061075557600080fd5b906000526020600020906005020160009150905080600001805461077890611392565b80601f01602080910402602001604051908101604052809291908181526020018280546107a490611392565b80156107f15780601f106107c6576101008083540402835291602001916107f1565b820191906000526020600020905b8154815290600101906020018083116107d457829003601f168201915b50505050509080600101549080600201805461080c90611392565b80601f016020809104026020016040519081016040528092919081815260200182805461083890611392565b80156108855780601f1061085a57610100808354040283529160200191610885565b820191906000526020600020905b81548152906001019060200180831161086857829003601f168201915b50505050509080600301805461089a90611392565b80601f01602080910402602001604051908101604052809291908181526020018280546108c690611392565b80156109135780601f106108e857610100808354040283529160200191610913565b820191906000526020600020905b8154815290600101906020018083116108f657829003601f168201915b50505050509080600401805461092890611392565b80601f016020809104026020016040519081016040528092919081815260200182805461095490611392565b80156109a15780601f10610976576101008083540402835291602001916109a1565b820191906000526020600020905b81548152906001019060200180831161098457829003601f168201915b5050505050905085565b6000806040518060a001604052808b8b8080601f016020809104026020016040519081016040528093929190818152602001838380828437600081840152601f19601f82011690508083019250505050505050815260200142815260200189898080601f016020809104026020016040519081016040528093929190818152602001838380828437600081840152601f19601f82011690508083019250505050505050815260200187878080601f016020809104026020016040519081016040528093929190818152602001838380828437600081840152601f19601f82011690508083019250505050505050815260200185858080601f016020809104026020016040519081016040528093929190818152602001838380828437600081840152601f19601f82011690508083019250505050505050815250905060018190806001815401808255809150506001900390600052602060002090600502016000909190919091506000820151816000019080519060200190610b2f929190610c9e565b50602082015181600101556040820151816002019080519060200190610b56929190610c9e565b506060820151816003019080519060200190610b73929190610c9e565b506080820151816004019080519060200190610b90929190610c9e565b50505060026000815480929190610ba6906113f5565b91905055503373ffffffffffffffffffffffffffffffffffffffff167f9b791e259a79a5bd39c54f1c6f501b344ab9ae8e4c44f134bb4e85328655d5eb428c8c8c8c8c8c8c8c604051610c0199989796959493929190611214565b60405180910390a260025491505098975050505050505050565b60025481565b600081604051602001610c34919061109a565b6040516020818303038152906040528051906020012083604051602001610c5b919061109a565b6040516020818303038152906040528051906020012014905092915050565b60008054906101000a900473ffffffffffffffffffffffffffffffffffffffff1681565b828054610caa90611392565b90600052602060002090601f016020900481019282610ccc5760008555610d13565b82601f10610ce557805160ff1916838001178555610d13565b82800160010185558215610d13579182015b82811115610d12578251825591602001919060010190610cf7565b5b509050610d209190610d24565b5090565b5b80821115610d3d576000816000905550600101610d25565b5090565b6000610d54610d4f846112b0565b61128b565b905082815260208101848484011115610d6c57600080fd5b610d77848285611350565b509392505050565b60008083601f840112610d9157600080fd5b8235905067ffffffffffffffff811115610daa57600080fd5b602083019150836001820283011115610dc257600080fd5b9250929050565b600082601f830112610dda57600080fd5b8135610dea848260208601610d41565b91505092915050565b600081359050610e0281611505565b92915050565b6000806000806000806000806080898b031215610e2457600080fd5b600089013567ffffffffffffffff811115610e3e57600080fd5b610e4a8b828c01610d7f565b9850985050602089013567ffffffffffffffff811115610e6957600080fd5b610e758b828c01610d7f565b9650965050604089013567ffffffffffffffff811115610e9457600080fd5b610ea08b828c01610d7f565b9450945050606089013567ffffffffffffffff811115610ebf57600080fd5b610ecb8b828c01610d7f565b92509250509295985092959890939650565b600060208284031215610eef57600080fd5b600082013567ffffffffffffffff811115610f0957600080fd5b610f1584828501610dc9565b91505092915050565b60008060408385031215610f3157600080fd5b600083013567ffffffffffffffff811115610f4b57600080fd5b610f5785828601610dc9565b925050602083013567ffffffffffffffff811115610f7457600080fd5b610f8085828601610dc9565b9150509250929050565b600060208284031215610f9c57600080fd5b6000610faa84828501610df3565b91505092915050565b610fbc81611308565b82525050565b610fcb8161131a565b82525050565b6000610fdd83856112ec565b9350610fea838584611350565b610ff3836114cb565b840190509392505050565b6000611009826112e1565b61101381856112ec565b935061102381856020860161135f565b61102c816114cb565b840191505092915050565b6000611042826112e1565b61104c81856112fd565b935061105c81856020860161135f565b80840191505092915050565b60006110756011836112ec565b9150611080826114dc565b602082019050919050565b61109481611346565b82525050565b60006110a68284611037565b915081905092915050565b60006020820190506110c66000830184610fb3565b92915050565b60006020820190506110e16000830184610fc2565b92915050565b600060408201905081810360008301526111018185610ffe565b905081810360208301526111158184610ffe565b90509392505050565b600060608201905081810360008301526111388186610ffe565b9050818103602083015261114c8185610ffe565b905081810360408301526111608184610ffe565b9050949350505050565b600060a08201905081810360008301526111848188610ffe565b9050611193602083018761108b565b81810360408301526111a58186610ffe565b905081810360608301526111b98185610ffe565b905081810360808301526111cd8184610ffe565b90509695505050505050565b600060208201905081810360008301526111f281611068565b9050919050565b600060208201905061120e600083018461108b565b92915050565b600060a082019050611229600083018c61108b565b818103602083015261123c818a8c610fd1565b9050818103604083015261125181888a610fd1565b90508181036060830152611266818688610fd1565b9050818103608083015261127b818486610fd1565b90509a9950505050505050505050565b60006112956112a6565b90506112a182826113c4565b919050565b6000604051905090565b600067ffffffffffffffff8211156112cb576112ca61149c565b5b6112d4826114cb565b9050602081019050919050565b600081519050919050565b600082825260208201905092915050565b600081905092915050565b600061131382611326565b9050919050565b60008115159050919050565b600073ffffffffffffffffffffffffffffffffffffffff82169050919050565b6000819050919050565b82818337600083830152505050565b60005b8381101561137d578082015181840152602081019050611362565b8381111561138c576000848401525b50505050565b600060028204905060018216806113aa57607f821691505b602082108114156113be576113bd61146d565b5b50919050565b6113cd826114cb565b810181811067ffffffffffffffff821117156113ec576113eb61149c565b5b80604052505050565b600061140082611346565b91507fffffffffffffffffffffffffffffffffffffffffffffffffffffffffffffffff8214156114335761143261143e565b5b600182019050919050565b7f4e487b7100000000000000000000000000000000000000000000000000000000600052601160045260246000fd5b7f4e487b7100000000000000000000000000000000000000000000000000000000600052602260045260246000fd5b7f4e487b7100000000000000000000000000000000000000000000000000000000600052604160045260246000fd5b6000601f19601f8301169050919050565b7f50726f64756374206e6f7420666f756e64000000000000000000000000000000600082015250565b61150e81611346565b811461151957600080fd5b5056fea264697066735822122041be0bae8e730a020e227d79017e37bad6d6a07383dc4e3e51067946181cef5764736f6c63430008040033",
    "linkReferences": {},
    "deployedLinkReferences": {}
}