{
  "_format": "hh-sol-artifact-1",
  "contractName": "TrackingContract",
  "sourceName": "contracts/TrackingContract.sol",
  "abi": [
    {
      "inputs": [],
      "stateMutability": "nonpayable",
      "type": "constructor"
    },
    {
      "anonymous": false,
      "inputs": [
        {
          "components": [
            {
              "internalType": "string",
              "name": "uid",
              "type": "string"
            },
            {
              "internalType": "string",
              "name": "description",
              "type": "string"
            },
            {
              "internalType": "string",
              "name": "origin",
              "type": "string"
            },
            {
              "internalType": "string",
              "name": "current",
              "type": "string"
            },
            {
              "internalType": "string",
              "name": "destination",
              "type": "string"
            },
            {
              "internalType": "string",
              "name": "companyCode",
              "type": "string"
            },
            {
              "internalType": "string",
              "name": "status",
              "type": "string"
            },
            {
              "internalType": "uint256",
              "name": "scannedTime",
              "type": "uint256"
            }
          ],
          "indexed": false,
          "internalType": "struct TrackingContract.Shipment",
          "name": "shipment",
          "type": "tuple"
        }
      ],
      "name": "InsertShipment",
      "type": "event"
    },
    {
      "anonymous": false,
      "inputs": [
        {
          "components": [
            {
              "internalType": "string",
              "name": "uid",
              "type": "string"
            },
            {
              "internalType": "string",
              "name": "description",
              "type": "string"
            },
            {
              "internalType": "string",
              "name": "origin",
              "type": "string"
            },
            {
              "internalType": "string",
              "name": "current",
              "type": "string"
            },
            {
              "internalType": "string",
              "name": "destination",
              "type": "string"
            },
            {
              "internalType": "string",
              "name": "companyCode",
              "type": "string"
            },
            {
              "internalType": "string",
              "name": "status",
              "type": "string"
            },
            {
              "internalType": "uint256",
              "name": "scannedTime",
              "type": "uint256"
            }
          ],
          "indexed": false,
          "internalType": "struct TrackingContract.Shipment",
          "name": "shipment",
          "type": "tuple"
        }
      ],
      "name": "ShipmentUpdated",
      "type": "event"
    },
    {
      "inputs": [
        {
          "internalType": "string",
          "name": "_uid",
          "type": "string"
        }
      ],
      "name": "getShipmentsByUID",
      "outputs": [
        {
          "components": [
            {
              "internalType": "string",
              "name": "uid",
              "type": "string"
            },
            {
              "internalType": "string",
              "name": "description",
              "type": "string"
            },
            {
              "internalType": "string",
              "name": "origin",
              "type": "string"
            },
            {
              "internalType": "string",
              "name": "current",
              "type": "string"
            },
            {
              "internalType": "string",
              "name": "destination",
              "type": "string"
            },
            {
              "internalType": "string",
              "name": "companyCode",
              "type": "string"
            },
            {
              "internalType": "string",
              "name": "status",
              "type": "string"
            },
            {
              "internalType": "uint256",
              "name": "scannedTime",
              "type": "uint256"
            }
          ],
          "internalType": "struct TrackingContract.Shipment",
          "name": "",
          "type": "tuple"
        }
      ],
      "stateMutability": "view",
      "type": "function"
    },
    {
      "inputs": [
        {
          "components": [
            {
              "internalType": "string",
              "name": "uid",
              "type": "string"
            },
            {
              "internalType": "string",
              "name": "description",
              "type": "string"
            },
            {
              "internalType": "string",
              "name": "origin",
              "type": "string"
            },
            {
              "internalType": "string",
              "name": "current",
              "type": "string"
            },
            {
              "internalType": "string",
              "name": "destination",
              "type": "string"
            },
            {
              "internalType": "string",
              "name": "companyCode",
              "type": "string"
            },
            {
              "internalType": "string",
              "name": "status",
              "type": "string"
            },
            {
              "internalType": "uint256",
              "name": "scannedTime",
              "type": "uint256"
            }
          ],
          "internalType": "struct TrackingContract.Shipment",
          "name": "_shipment",
          "type": "tuple"
        }
      ],
      "name": "insert",
      "outputs": [],
      "stateMutability": "nonpayable",
      "type": "function"
    },
    {
      "inputs": [],
      "name": "me",
      "outputs": [
        {
          "internalType": "address",
          "name": "",
          "type": "address"
        }
      ],
      "stateMutability": "view",
      "type": "function"
    },
    {
      "inputs": [
        {
          "internalType": "uint256",
          "name": "",
          "type": "uint256"
        }
      ],
      "name": "shipments",
      "outputs": [
        {
          "internalType": "string",
          "name": "uid",
          "type": "string"
        },
        {
          "internalType": "string",
          "name": "description",
          "type": "string"
        },
        {
          "internalType": "string",
          "name": "origin",
          "type": "string"
        },
        {
          "internalType": "string",
          "name": "current",
          "type": "string"
        },
        {
          "internalType": "string",
          "name": "destination",
          "type": "string"
        },
        {
          "internalType": "string",
          "name": "companyCode",
          "type": "string"
        },
        {
          "internalType": "string",
          "name": "status",
          "type": "string"
        },
        {
          "internalType": "uint256",
          "name": "scannedTime",
          "type": "uint256"
        }
      ],
      "stateMutability": "view",
      "type": "function"
    },
    {
      "inputs": [],
      "name": "totalTransactions",
      "outputs": [
        {
          "internalType": "uint256",
          "name": "",
          "type": "uint256"
        }
      ],
      "stateMutability": "view",
      "type": "function"
    },
    {
      "inputs": [
        {
          "components": [
            {
              "internalType": "string",
              "name": "uid",
              "type": "string"
            },
            {
              "internalType": "string",
              "name": "description",
              "type": "string"
            },
            {
              "internalType": "string",
              "name": "origin",
              "type": "string"
            },
            {
              "internalType": "string",
              "name": "current",
              "type": "string"
            },
            {
              "internalType": "string",
              "name": "destination",
              "type": "string"
            },
            {
              "internalType": "string",
              "name": "companyCode",
              "type": "string"
            },
            {
              "internalType": "string",
              "name": "status",
              "type": "string"
            },
            {
              "internalType": "uint256",
              "name": "scannedTime",
              "type": "uint256"
            }
          ],
          "internalType": "struct TrackingContract.Shipment",
          "name": "updatedShipment",
          "type": "tuple"
        }
      ],
      "name": "updateStatus",
      "outputs": [],
      "stateMutability": "nonpayable",
      "type": "function"
    }
  ],
  "bytecode": "0x608060405234801561001057600080fd5b50336000806101000a81548173ffffffffffffffffffffffffffffffffffffffff021916908373ffffffffffffffffffffffffffffffffffffffff160217905550611924806100606000396000f3fe608060405234801561001057600080fd5b50600436106100625760003560e01c806310be79f8146100675780632ac08a9314610097578063316d7364146100ce5780636f611939146100ea578063b9a6003814610106578063cb12b48f14610124575b600080fd5b610081600480360381019061007c919061129e565b610142565b60405161008e919061161b565b60405180910390f35b6100b160048036038101906100ac9190611324565b610736565b6040516100c598979695949392919061154c565b60405180910390f35b6100e860048036038101906100e391906112e3565b610b46565b005b61010460048036038101906100ff91906112e3565b610c9b565b005b61010e610efe565b60405161011b919061163d565b60405180910390f35b61012c610f04565b6040516101399190611531565b60405180910390f35b61014a610f81565b60005b6002548110156106f45761027860018281548110610194577f4e487b7100000000000000000000000000000000000000000000000000000000600052603260045260246000fd5b906000526020600020906008020160000180546101b090611764565b80601f01602080910402602001604051908101604052809291908181526020018280546101dc90611764565b80156102295780601f106101fe57610100808354040283529160200191610229565b820191906000526020600020905b81548152906001019060200180831161020c57829003601f168201915b505050505085858080601f016020809104026020016040519081016040528093929190818152602001838380828437600081840152601f19601f82011690508083019250505050505050610f28565b156106e157600181815481106102b7577f4e487b7100000000000000000000000000000000000000000000000000000000600052603260045260246000fd5b9060005260206000209060080201604051806101000160405290816000820180546102e190611764565b80601f016020809104026020016040519081016040528092919081815260200182805461030d90611764565b801561035a5780601f1061032f5761010080835404028352916020019161035a565b820191906000526020600020905b81548152906001019060200180831161033d57829003601f168201915b5050505050815260200160018201805461037390611764565b80601f016020809104026020016040519081016040528092919081815260200182805461039f90611764565b80156103ec5780601f106103c1576101008083540402835291602001916103ec565b820191906000526020600020905b8154815290600101906020018083116103cf57829003601f168201915b5050505050815260200160028201805461040590611764565b80601f016020809104026020016040519081016040528092919081815260200182805461043190611764565b801561047e5780601f106104535761010080835404028352916020019161047e565b820191906000526020600020905b81548152906001019060200180831161046157829003601f168201915b5050505050815260200160038201805461049790611764565b80601f01602080910402602001604051908101604052809291908181526020018280546104c390611764565b80156105105780601f106104e557610100808354040283529160200191610510565b820191906000526020600020905b8154815290600101906020018083116104f357829003601f168201915b5050505050815260200160048201805461052990611764565b80601f016020809104026020016040519081016040528092919081815260200182805461055590611764565b80156105a25780601f10610577576101008083540402835291602001916105a2565b820191906000526020600020905b81548152906001019060200180831161058557829003601f168201915b505050505081526020016005820180546105bb90611764565b80601f01602080910402602001604051908101604052809291908181526020018280546105e790611764565b80156106345780601f1061060957610100808354040283529160200191610634565b820191906000526020600020905b81548152906001019060200180831161061757829003601f168201915b5050505050815260200160068201805461064d90611764565b80601f016020809104026020016040519081016040528092919081815260200182805461067990611764565b80156106c65780601f1061069b576101008083540402835291602001916106c6565b820191906000526020600020905b8154815290600101906020018083116106a957829003601f168201915b50505050508152602001600782015481525050915050610730565b80806106ec906117c7565b91505061014d565b506040517f08c379a0000000000000000000000000000000000000000000000000000000008152600401610727906115fb565b60405180910390fd5b92915050565b6001818154811061074657600080fd5b906000526020600020906008020160009150905080600001805461076990611764565b80601f016020809104026020016040519081016040528092919081815260200182805461079590611764565b80156107e25780601f106107b7576101008083540402835291602001916107e2565b820191906000526020600020905b8154815290600101906020018083116107c557829003601f168201915b5050505050908060010180546107f790611764565b80601f016020809104026020016040519081016040528092919081815260200182805461082390611764565b80156108705780601f1061084557610100808354040283529160200191610870565b820191906000526020600020905b81548152906001019060200180831161085357829003601f168201915b50505050509080600201805461088590611764565b80601f01602080910402602001604051908101604052809291908181526020018280546108b190611764565b80156108fe5780601f106108d3576101008083540402835291602001916108fe565b820191906000526020600020905b8154815290600101906020018083116108e157829003601f168201915b50505050509080600301805461091390611764565b80601f016020809104026020016040519081016040528092919081815260200182805461093f90611764565b801561098c5780601f106109615761010080835404028352916020019161098c565b820191906000526020600020905b81548152906001019060200180831161096f57829003601f168201915b5050505050908060040180546109a190611764565b80601f01602080910402602001604051908101604052809291908181526020018280546109cd90611764565b8015610a1a5780601f106109ef57610100808354040283529160200191610a1a565b820191906000526020600020905b8154815290600101906020018083116109fd57829003601f168201915b505050505090806005018054610a2f90611764565b80601f0160208091040260200160405190810160405280929190818152602001828054610a5b90611764565b8015610aa85780601f10610a7d57610100808354040283529160200191610aa8565b820191906000526020600020905b815481529060010190602001808311610a8b57829003601f168201915b505050505090806006018054610abd90611764565b80601f0160208091040260200160405190810160405280929190818152602001828054610ae990611764565b8015610b365780601f10610b0b57610100808354040283529160200191610b36565b820191906000526020600020905b815481529060010190602001808311610b1957829003601f168201915b5050505050908060070154905088565b60018190806001815401808255809150506001900390600052602060002090600802016000909190919091506000820151816000019080519060200190610b8e929190610fc6565b506020820151816001019080519060200190610bab929190610fc6565b506040820151816002019080519060200190610bc8929190610fc6565b506060820151816003019080519060200190610be5929190610fc6565b506080820151816004019080519060200190610c02929190610fc6565b5060a0820151816005019080519060200190610c1f929190610fc6565b5060c0820151816006019080519060200190610c3c929190610fc6565b5060e0820151816007015550507fc8d18afb6581c58c6d0e7c505eed884363b3c4f1f21579f592a966189a228ff681604051610c78919061161b565b60405180910390a160026000815480929190610c93906117c7565b919050555050565b60005b600254811015610ec357610d8960018281548110610ce5577f4e487b7100000000000000000000000000000000000000000000000000000000600052603260045260246000fd5b90600052602060002090600802016000018054610d0190611764565b80601f0160208091040260200160405190810160405280929190818152602001828054610d2d90611764565b8015610d7a5780601f10610d4f57610100808354040283529160200191610d7a565b820191906000526020600020905b815481529060010190602001808311610d5d57829003601f168201915b50505050508360000151610f28565b15610eb0578160018281548110610dc9577f4e487b7100000000000000000000000000000000000000000000000000000000600052603260045260246000fd5b90600052602060002090600802016000820151816000019080519060200190610df3929190610fc6565b506020820151816001019080519060200190610e10929190610fc6565b506040820151816002019080519060200190610e2d929190610fc6565b506060820151816003019080519060200190610e4a929190610fc6565b506080820151816004019080519060200190610e67929190610fc6565b5060a0820151816005019080519060200190610e84929190610fc6565b5060c0820151816006019080519060200190610ea1929190610fc6565b5060e082015181600701559050505b8080610ebb906117c7565b915050610c9e565b507fb7ce8e5f45365d58655fbee4cf5854abb1a0d1b5f9328dd09525a667ff21264a81604051610ef3919061161b565b60405180910390a150565b60025481565b60008054906101000a900473ffffffffffffffffffffffffffffffffffffffff1681565b600081604051602001610f3b919061151a565b6040516020818303038152906040528051906020012083604051602001610f62919061151a565b6040516020818303038152906040528051906020012014905092915050565b60405180610100016040528060608152602001606081526020016060815260200160608152602001606081526020016060815260200160608152602001600081525090565b828054610fd290611764565b90600052602060002090601f016020900481019282610ff4576000855561103b565b82601f1061100d57805160ff191683800117855561103b565b8280016001018555821561103b579182015b8281111561103a57825182559160200191906001019061101f565b5b509050611048919061104c565b5090565b5b8082111561106557600081600090555060010161104d565b5090565b600061107c6110778461167d565b611658565b90508281526020810184848401111561109457600080fd5b61109f848285611722565b509392505050565b60008083601f8401126110b957600080fd5b8235905067ffffffffffffffff8111156110d257600080fd5b6020830191508360018202830111156110ea57600080fd5b9250929050565b600082601f83011261110257600080fd5b8135611112848260208601611069565b91505092915050565b6000610100828403121561112e57600080fd5b611139610100611658565b9050600082013567ffffffffffffffff81111561115557600080fd5b611161848285016110f1565b600083015250602082013567ffffffffffffffff81111561118157600080fd5b61118d848285016110f1565b602083015250604082013567ffffffffffffffff8111156111ad57600080fd5b6111b9848285016110f1565b604083015250606082013567ffffffffffffffff8111156111d957600080fd5b6111e5848285016110f1565b606083015250608082013567ffffffffffffffff81111561120557600080fd5b611211848285016110f1565b60808301525060a082013567ffffffffffffffff81111561123157600080fd5b61123d848285016110f1565b60a08301525060c082013567ffffffffffffffff81111561125d57600080fd5b611269848285016110f1565b60c08301525060e061127d84828501611289565b60e08301525092915050565b600081359050611298816118d7565b92915050565b600080602083850312156112b157600080fd5b600083013567ffffffffffffffff8111156112cb57600080fd5b6112d7858286016110a7565b92509250509250929050565b6000602082840312156112f557600080fd5b600082013567ffffffffffffffff81111561130f57600080fd5b61131b8482850161111b565b91505092915050565b60006020828403121561133657600080fd5b600061134484828501611289565b91505092915050565b611356816116e6565b82525050565b6000611367826116ae565b61137181856116b9565b9350611381818560208601611731565b61138a8161189d565b840191505092915050565b60006113a0826116ae565b6113aa81856116ca565b93506113ba818560208601611731565b6113c38161189d565b840191505092915050565b60006113d9826116ae565b6113e381856116db565b93506113f3818560208601611731565b80840191505092915050565b600061140c6012836116ca565b9150611417826118ae565b602082019050919050565b6000610100830160008301518482036000860152611440828261135c565b9150506020830151848203602086015261145a828261135c565b91505060408301518482036040860152611474828261135c565b9150506060830151848203606086015261148e828261135c565b915050608083015184820360808601526114a8828261135c565b91505060a083015184820360a08601526114c2828261135c565b91505060c083015184820360c08601526114dc828261135c565b91505060e08301516114f160e08601826114fc565b508091505092915050565b61150581611718565b82525050565b61151481611718565b82525050565b600061152682846113ce565b915081905092915050565b6000602082019050611546600083018461134d565b92915050565b6000610100820190508181036000830152611567818b611395565b9050818103602083015261157b818a611395565b9050818103604083015261158f8189611395565b905081810360608301526115a38188611395565b905081810360808301526115b78187611395565b905081810360a08301526115cb8186611395565b905081810360c08301526115df8185611395565b90506115ee60e083018461150b565b9998505050505050505050565b60006020820190508181036000830152611614816113ff565b9050919050565b600060208201905081810360008301526116358184611422565b905092915050565b6000602082019050611652600083018461150b565b92915050565b6000611662611673565b905061166e8282611796565b919050565b6000604051905090565b600067ffffffffffffffff8211156116985761169761186e565b5b6116a18261189d565b9050602081019050919050565b600081519050919050565b600082825260208201905092915050565b600082825260208201905092915050565b600081905092915050565b60006116f1826116f8565b9050919050565b600073ffffffffffffffffffffffffffffffffffffffff82169050919050565b6000819050919050565b82818337600083830152505050565b60005b8381101561174f578082015181840152602081019050611734565b8381111561175e576000848401525b50505050565b6000600282049050600182168061177c57607f821691505b602082108114156117905761178f61183f565b5b50919050565b61179f8261189d565b810181811067ffffffffffffffff821117156117be576117bd61186e565b5b80604052505050565b60006117d282611718565b91507fffffffffffffffffffffffffffffffffffffffffffffffffffffffffffffffff82141561180557611804611810565b5b600182019050919050565b7f4e487b7100000000000000000000000000000000000000000000000000000000600052601160045260246000fd5b7f4e487b7100000000000000000000000000000000000000000000000000000000600052602260045260246000fd5b7f4e487b7100000000000000000000000000000000000000000000000000000000600052604160045260246000fd5b6000601f19601f8301169050919050565b7f536869706d656e74204e6f7420466f756e640000000000000000000000000000600082015250565b6118e081611718565b81146118eb57600080fd5b5056fea2646970667358221220abfa9a515dd26ae60e16b0e1cdb39442e9c10591a80c7a41199317f494875ea864736f6c63430008040033",
  "linkReferences": {},
  "deployedLinkReferences": {}
}